:100000000C942A000C943F000C943F000C943F0089
:100010000C943F000C943F000C943F000C943F0064
:100020000C943F000C943F000C943F000C943F0054
:100030000C943F000C943F000C943F000C943F0044
:100040000C943F000C943F000C943F000C943F0034
:100050000C943F0011241FBECFE5D8E0DEBFCDBF1A
:1000600011E0A0E6B0E0E4E6F6E202C005900D92F1
:10007000AA30B107D9F70E945F0C0C9430130C948E
:100080000000EF92FF920F931F937B018C0120E001
:1000900030E040E05FE40E94410388238CF0C80117
:1000A000B70120E030E040E05FE40E94B9010E9427
:1000B000A1039B01AC01205030404040504806C095
:1000C000C801B7010E94A1039B01AC01B901CA019B
:1000D0001F910F91FF90EF900895A0E0B0E0E3E74B
:1000E000F0E00C94F912DC012B01FA019C919230A2
:1000F00008F439C1EB018881823008F433C19430AF
:1001000069F4843009F02FC111969C91119789816F
:10011000981709F428C1A3EEB0E025C1843009F492
:1001200021C18230A9F4923009F01DC19A01AD01BC
:1001300088E0EA010990AE01E90109929E0181502F
:10014000C1F7E201898111969C918923818308C1BD
:10015000923009F407C112962D903C901397EB0151
:100160008A819B811496AD90BD90CD90DC901797BD
:10017000EC80FD800E811F819101281B390BB90194
:1001800037FF04C066277727621B730B6032710547
:100190000CF061C0121613066CF537014801062EEB
:1001A00004C096948794779467940A94D2F721E0D8
:1001B00030E040E050E004C0220F331F441F551FC1
:1001C0006A95D2F721503040404050402E213F21C7
:1001D00040235123211531054105510521F021E02E
:1001E00030E040E050E079018A01E628F72808294C
:1001F00019293CC0232BD1F1260E371E35014601AB
:10020000062E04C096948794779467940A94D2F744
:1002100021E030E040E050E004C0220F331F441FD3
:10022000551F6A95D2F721503040404050402A2156
:100230003B214C215D21211531054105510521F05E
:1002400021E030E040E050E059016A01A628B728DB
:10025000C828D9280BC0821593052CF01C01AA24AC
:10026000BB24650103C0EE24FF24870111969C91F5
:10027000D20111968C91981709F445C0992339F051
:10028000A80197012A193B094C095D0906C0A6017E
:1002900095012E193F09400B510B57FD08C01182E3
:1002A0003382228224833583468357831DC081E0B5
:1002B00081833382228288279927DC01821B930B5A
:1002C000A40BB50B84839583A683B7830DC0220F3F
:1002D000331F441F551F24833583468357838281F0
:1002E000938101979383828324813581468157814D
:1002F000DA01C9010197A109B1098F5F9F4FAF4F83
:10030000BF4328F30BC0918333822282EA0CFB1C8B
:100310000C1D1D1DE482F5820683178383E0808314
:10032000248135814681578157FF1AC0C901AA2708
:1003300097FDA095BA2F81709070A070B0705695FF
:10034000479537952795822B932BA42BB52B848328
:100350009583A683B7838281938101969383828359
:10036000DF0101C0D201CD01CDB7DEB7E2E10C94CF
:100370001513A0E2B0E0EFEBF1E00C9405136983F4
:100380007A838B839C832D833E834F835887E9E058
:10039000EE2EF12CEC0EFD1ECE010196B7010E944F
:1003A000CA048E010F5E1F4FCE010596B8010E9450
:1003B000CA048A8991E089278A8BC701B801AE01F6
:1003C000475E5F4F0E946D000E94F503A096E6E035
:1003D0000C942113A0E2B0E0E0EFF1E00C940513DF
:1003E00069837A838B839C832D833E834F835887D5
:1003F000F9E0EF2EF12CEC0EFD1ECE010196B701B7
:100400000E94CA048E010F5E1F4FCE010596B801EF
:100410000E94CA04C701B801AE01475E5F4F0E9447
:100420006D000E94F503A096E6E00C942113A0E273
:10043000B0E0EDE1F2E00C94F91269837A838B83EA
:100440009C832D833E834F835887CE010196BE0146
:10045000675F7F4F0E94CA04CE010596BE016F5EA2
:100460007F4F0E94CA049985923088F08989823032
:10047000C8F0943019F4823051F404C0843029F467
:10048000923081F483EE90E0C6C0923049F420E0CF
:100490009A858A89981321E02A87CE010996BBC0E4
:1004A000823049F420E09A858A89981321E02A8BCA
:1004B000CE014196B0C02D843E844F8458886D880B
:1004C0007E888F88988CEE24FF248701AA24BB2481
:1004D000650140E050E060E070E0E0E0F0E0C10184
:1004E00081709070892BE9F0E60CF71C081D191D2E
:1004F0009A01AB012A0D3B1D4C1D5D1D80E090E073
:10050000A0E0B0E0E614F7040805190520F481E046
:1005100090E0A0E0B0E0BA01A901480F591F6A1F9E
:100520007B1FAA0CBB1CCC1CDD1C97FE08C081E005
:1005300090E0A0E0B0E0A82AB92ACA2ADB2A3196C6
:10054000E032F10549F0660C771C881C991C569422
:10055000479437942794C3CFFA85EA892B893C893D
:100560008B859C85280F391F2E5F3F4F17C0CA010E
:1005700081709070892B61F016950795F794E79438
:1005800080E090E0A0E0B0E8E82AF92A0A2B1B2BD3
:1005900076956795579547952F5F3F4F77FDE7CF46
:1005A0000CC0440F551F661F771F17FD4160EE0CEE
:1005B000FF1C001F111F21503040403090E05907B0
:1005C00090E0690790E4790760F32B8F3C8FDB01A3
:1005D000CA018F779070A070B07080349105A1052A
:1005E000B10561F447FD0AC0E114F10401051105EC
:1005F00029F0405C5F4F6F4F7F4F40781A8EFE1797
:1006000011F081E08A8F4D8F5E8F6F8F78A383E02A
:10061000898FCE0149960E94F503A096E2E10C94E1
:100620001513A8E1B0E0E7E1F3E00C94051369834A
:100630007A838B839C832D833E834F83588789E005
:10064000E82EF12CEC0EFD1ECE010196B7010E94A2
:10065000CA048E010F5E1F4FCE010596B8010E949D
:10066000CA048985823040F08989823028F0C70128
:10067000B8010E94420501C08FEF6896E6E00C9435
:100680002113A8E1B0E0E7E4F3E00C9405136983DB
:100690007A838B839C832D833E834F83588789E0A5
:1006A000E82EF12CEC0EFD1ECE010196B7010E9442
:1006B000CA048E010F5E1F4FCE010596B8010E943D
:1006C000CA048985823040F08989823028F0C701C8
:1006D000B8010E94420501C08FEF6896E6E00C94D5
:1006E0002113A8E1B0E0E7E7F3E00C940513698378
:1006F0007A838B839C832D833E834F83588789E045
:10070000E82EF12CEC0EFD1ECE010196B7010E94E1
:10071000CA048E010F5E1F4FCE010596B8010E94DC
:10072000CA048985823040F08989823028F0C70167
:10073000B8010E94420501C081E06896E6E00C9491
:100740002113ACE0B0E0E7EAF3E00C94091369830D
:100750007A838B839C83CE010196BE016B5F7F4FB2
:100760000E94CA048D81823061F1823050F1843060
:1007700021F48E81882351F12EC02F81388537FDD9
:1007800020C06E812F3131051CF06623F9F023C0A3
:100790008EE190E0821B930B29853A854B855C8521
:1007A00004C056954795379527958A95D2F76623C5
:1007B000B1F050954095309521953F4F4F4F5F4F89
:1007C0000EC020E030E040E050E009C02FEF3FEFE6
:1007D0004FEF5FE704C020E030E040E050E8B901AF
:1007E000CA012C96E2E00C942513DF92EF92FF925F
:1007F0000F931F93FC01E480F58006811781D1805F
:100800008081823048F480E090E0A0E1B0E0E82A06
:10081000F92A0A2B1B2BA5C0843009F49FC0823013
:1008200021F4EE24FF24870105C0E114F104010541
:10083000110519F4E0E0F0E096C0628173819FEF4A
:10084000623879070CF05BC022E83FEF261B370BBC
:100850002A3131052CF020E030E040E050E02AC0A1
:10086000B801A701022E04C0769567955795479564
:100870000A94D2F781E090E0A0E0B0E004C0880FD5
:10088000991FAA1FBB1F2A95D2F70197A109B10989
:100890008E219F21A023B1230097A105B10521F04E
:1008A00081E090E0A0E0B0E09A01AB01282B392B69
:1008B0004A2B5B2BDA01C9018F779070A070B07062
:1008C00080349105A105B10539F427FF09C0205CEA
:1008D0003F4F4F4F5F4F04C0215C3F4F4F4F5F4F23
:1008E000E0E0F0E02030A0E03A07A0E04A07A0E412
:1008F0005A0710F0E1E0F0E079018A0127C0603882
:10090000710564F5FB01E158FF4FD801C7018F77EE
:100910009070A070B07080349105A105B10539F4D4
:10092000E7FE0DC080E490E0A0E0B0E004C08FE3FB
:1009300090E0A0E0B0E0E80EF91E0A1F1B1F17FFB1
:1009400005C016950795F794E794319687E01695BC
:100950000795F794E7948A95D1F705C0EE24FF2414
:100960008701EFEFF0E06E2F679566276795902F70
:100970009F77D794DD24D7948E2F8695492F462BC9
:10098000582F5D29B701CA011F910F91FF90EF9079
:10099000DF900895FC01DB01408151812281622FAB
:1009A0006F7770E0221F2227221F9381892F880FE3
:1009B000822B282F30E0991F9927991F11969C931D
:1009C000119721153105A9F54115510561057105ED
:1009D00011F482E037C082E89FEF13969C938E93C8
:1009E00012979A01AB0167E0220F331F441F551F76
:1009F0006A95D1F783E08C930DC0220F331F441FFB
:100A0000551F12968D919C911397019713969C9365
:100A10008E931297203080E0380780E0480780E40A
:100A2000580758F314962D933D934D935C93179765
:100A300008952F3F310579F4411551056105710580
:100A400019F484E08C93089564FF03C081E08C93D3
:100A500012C01C9210C02F57304013963C932E9317
:100A6000129783E08C9387E0440F551F661F771F12
:100A70008A95D1F7706414964D935D936D937C9332
:100A8000179708951F93DC01FB019C91923008F4A5
:100A900047C08081823008F443C0943051F41196ED
:100AA0001C91843099F58181682F70E0611B710978
:100AB0003FC0843021F0923031F48230B9F181812D
:100AC000882389F12DC011961C9111978230F1F085
:100AD00081811817D9F412962D913C911397828138
:100AE00093818217930794F028173907BCF0149666
:100AF0008D919D910D90BC91A02D248135814681D1
:100B00005781281739074A075B0718F4112341F06A
:100B10000AC082179307A407B50740F4112319F000
:100B200061E070E005C06FEF7FEF02C060E070E051
:100B3000CB011F910895DF93CF93CDB7DEB72F97E9
:100B40000FB6F894DEBF0FBECDBF8F8780E060E0A8
:100B500040E00E94D20980E061E040E00E94D209BA
:100B600082E06F850E94E40A80E062E041E00E943A
:100B7000D20980E090E0A0E0B0E48B879C87AD874D
:100B8000BE876B857C858D859E8520E030E04AEFB1
:100B900054E40E941702DC01CB018F839887A98758
:100BA000BA876F81788589859A8520E030E040E8B2
:100BB0005FE30E94710388232CF481E090E09E8320
:100BC0008D833FC06F81788589859A8520E03FEFCE
:100BD0004FE757E40E94110318164CF56B857C858E
:100BE0008D859E8520E030E040E251E40E941702AE
:100BF000DC01CB01BC01CD010E944100DC01CB0135
:100C00009E838D830FC088EC90E09C838B838B81C7
:100C10009C810197F1F79C838B838D819E81019745
:100C20009E838D838D819E81009769F714C06F81AB
:100C3000788589859A850E944100DC01CB019E83DD
:100C40008D838D819E819A83898389819A81019781
:100C5000F1F79A83898380E062E040E00E94D20944
:100C60002F960FB6F894DEBF0FBECDBFCF91DF91A8
:100C70000895DF93CF93CDB7DEB72F970FB6F894D3
:100C8000DEBF0FBECDBF8F8780E060E041E00E94F5
:100C9000D20980E061E040E00E94D20982E06F85E5
:100CA0000E94E40A80E062E041E00E94D20980E014
:100CB00090E0A0E0B0E48B879C87AD87BE876B8512
:100CC0007C858D859E8520E030E04AEF54E40E94CB
:100CD0001702DC01CB018F839887A987BA876F81C0
:100CE000788589859A8520E030E040E85FE30E94BE
:100CF000710388232CF481E090E09E838D833FC0B4
:100D00006F81788589859A8520E03FEF4FE757E42A
:100D10000E94110318164CF56B857C858D859E8588
:100D200020E030E040E251E40E941702DC01CB01F8
:100D3000BC01CD010E944100DC01CB019E838D836B
:100D40000FC088EC90E09C838B838B819C81019702
:100D5000F1F79C838B838D819E8101979E838D8388
:100D60008D819E81009769F714C06F817885898590
:100D70009A850E944100DC01CB019E838D838D8189
:100D80009E819A83898389819A810197F1F79A8359
:100D9000898380E062E040E00E94D2092F960FB67E
:100DA000F894DEBF0FBECDBFCF91DF910895DF93E2
:100DB000CF93CDB7DEB76C970FB6F894DEBF0FBEFA
:100DC000CDBF80E090E0A0E2B2E4898F9A8FAB8F34
:100DD000BC8F698D7A8D8B8D9C8D20E030E04AEF41
:100DE00054E40E941702DC01CB018D8B9E8BAF8BEC
:100DF000B88F6D897E898F89988D20E030E040E83A
:100E00005FE30E94710388232CF481E090E09C8BC7
:100E10008B8B3FC06D897E898F89988D20E03FEF55
:100E20004FE757E40E94110318164CF5698D7A8D2F
:100E30008B8D9C8D20E030E040E251E40E9417024F
:100E4000DC01CB01BC01CD010E944100DC01CB01E2
:100E50009C8B8B8B0FC088EC90E09A8B898B898957
:100E60009A890197F1F79A8B898B8B899C890197D5
:100E70009C8B8B8B8B899C89009769F714C06D893B
:100E80007E898F89988D0E944100DC01CB019C8B6B
:100E90008B8B8B899C89988B8F878F8598890197FD
:100EA000F1F7988B8F8788E30E949B058CE00E9466
:100EB0009B0581E00E949B0580E090E0A0E0B0E40B
:100EC0008B879C87AD87BE876B857C858D859E854E
:100ED00020E030E04AEF54E40E941702DC01CB012D
:100EE0008F839887A987BA876F81788589859A8546
:100EF00020E030E040E85FE30E94710388232CF497
:100F000081E090E09E838D833FC06F8178858985E5
:100F10009A8520E03FEF4FE757E40E94110318162F
:100F20004CF56B857C858D859E8520E030E040E228
:100F300051E40E941702DC01CB01BC01CD010E94EB
:100F40004100DC01CB019E838D830FC088EC90E0D3
:100F50009C838B838B819C810197F1F79C838B838E
:100F60008D819E8101979E838D838D819E810097C7
:100F700069F714C06F81788589859A850E94410040
:100F8000DC01CB019E838D838D819E819A83898331
:100F900089819A810197F1F79A83898382E06FEFC3
:100FA0000E948A0980E060E04FEF0E94780880E0AC
:100FB00062E04FEF0E94780880E061E04FEF0E940E
:100FC00078086C960FB6F894DEBF0FBECDBFCF91F8
:100FD000DF910895DF93CF9300D00F92CDB7DEB7A6
:100FE0009B838A83198210C08981282F332727FD8C
:100FF00030958A819B81FC01E20FF31F80810E9462
:10100000390689818F5F89838981282F332727FDBE
:1010100030958A819B81FC01E20FF31F8081882338
:1010200019F70F900F900F90CF91DF910895DF93F4
:10103000CF9300D00F92CDB7DEB78A836B838A81BE
:10104000882319F48B81898306C08A81813019F441
:101050008B81805C8983898180580E949B050F90D9
:101060000F900F90CF91DF910895DF93CF93CDB77D
:10107000DEB727970FB6F894DEBF0FBECDBF9C83B7
:101080008B836D834E832F831A828D818A838A811D
:10109000805C0E949B0519820EC08981282F30E058
:1010A0008B819C81FC01E20FF31F80810E94390635
:1010B00089818F5F89838981883078F38E816F8100
:1010C0000E9417088D810E94390627960FB6F89462
:1010D000DEBF0FBECDBFCF91DF910895DF93CF93D9
:1010E000CDB7DEB781E00E949B05CF91DF910895D7
:1010F000DF93CF93CDB7DEB728970FB6F894DEBF56
:101100000FBECDBF8A836B834C8319828B8188305D
:1011100008F0F4C08C81882309F077C08A81282FD9
:1011200030E038872F838F8198858130910559F180
:101130002F813885223031052CF48F8198850097D6
:1011400069F060C02F8138852230310589F18F81A7
:1011500098858330910509F440C054C0AAE3B0E0FB
:10116000EAE3F0E08081482F8B81282F30E081E096
:1011700090E0022E02C0880F991F0A94E2F7809532
:1011800084238C93BDC0A7E3B0E0E7E3F0E0808167
:10119000482F8B81282F30E081E090E0022E02C0A2
:1011A000880F991F0A94E2F7809584238C93A8C036
:1011B000A4E3B0E0E4E3F0E08081482F8B81282FA6
:1011C00030E081E090E0022E02C0880F991F0A945F
:1011D000E2F7809584238C9393C0A1E3B0E0E1E330
:1011E000F0E08081482F8B81282F30E081E090E073
:1011F000022E02C0880F991F0A94E2F7809584237B
:101200008C937EC081E089837BC08C81813009F022
:1012100072C08A81282F30E03E832D838D819E818C
:101220008130910549F12D813E81223031052CF428
:101230008D819E81009761F05BC02D813E812230BF
:10124000310571F18D819E8183309105E9F150C0A6
:10125000AAE3B0E0EAE3F0E08081482F8B81282FF9
:1012600030E081E090E0022E02C0880F991F0A94BE
:10127000E2F7842B8C9344C0A7E3B0E0E7E3F0E00F
:101280008081482F8B81282F30E081E090E0022E72
:1012900002C0880F991F0A94E2F7842B8C9330C008
:1012A000A4E3B0E0E4E3F0E08081482F8B81282FB5
:1012B00030E081E090E0022E02C0880F991F0A946E
:1012C000E2F7842B8C931CC0A1E3B0E0E1E3F0E0F3
:1012D0008081482F8B81282F30E081E090E0022E22
:1012E00002C0880F991F0A94E2F7842B8C9308C0E0
:1012F00081E0898305C081E0898302C081E0898320
:10130000898128960FB6F894DEBF0FBECDBFCF916E
:10131000DF910895DF93CF9300D000D00F92CDB727
:10132000DEB78A836B8319828A81282F30E03D8360
:101330002C838C819D8181309105D1F02C813D8160
:10134000223031052CF48C819D81009761F01FC003
:101350002C813D812230310581F08C819D8183304B
:10136000910581F014C0EAE3F0E08B81808311C025
:10137000E7E3F0E08B8180830CC0E4E3F0E08B8155
:10138000808307C0E1E3F0E08B81808302C081E0CD
:10139000898389810F900F900F900F900F90CF91BC
:1013A000DF910895DF93CF93CDB7DEB728970FB6BF
:1013B000F894DEBF0FBECDBF8A836B834C83198246
:1013C0008B81883008F0F4C08C81882309F077C0C5
:1013D0008A81282F30E038872F838F81988581304C
:1013E000910559F12F813885223031052CF48F81F8
:1013F0009885009769F060C02F81388522303105CB
:1014000089F18F8198858330910509F440C054C0DB
:10141000ABE3B0E0EBE3F0E08081482F8B81282F35
:1014200030E081E090E0022E02C0880F991F0A94FC
:10143000E2F7809584238C93BDC0A8E3B0E0E8E395
:10144000F0E08081482F8B81282F30E081E090E010
:10145000022E02C0880F991F0A94E2F78095842318
:101460008C93A8C0A5E3B0E0E5E3F0E08081482FCD
:101470008B81282F30E081E090E0022E02C0880F9F
:10148000991F0A94E2F7809584238C9393C0A2E37A
:10149000B0E0E2E3F0E08081482F8B81282F30E03C
:1014A00081E090E0022E02C0880F991F0A94E2F7B3
:1014B000809584238C937EC081E089837BC08C815E
:1014C000813009F072C08A81282F30E03E832D835D
:1014D0008D819E818130910549F12D813E8122309F
:1014E00031052CF48D819E81009761F05BC02D81C8
:1014F0003E812230310571F18D819E8183309105CD
:10150000E9F150C0ABE3B0E0EBE3F0E08081482FBD
:101510008B81282F30E081E090E0022E02C0880FFE
:10152000991F0A94E2F7842B8C9344C0A8E3B0E09F
:10153000E8E3F0E08081482F8B81282F30E081E0C4
:1015400090E0022E02C0880F991F0A94E2F7842BC4
:101550008C9330C0A5E3B0E0E5E3F0E08081482F54
:101560008B81282F30E081E090E0022E02C0880FAE
:10157000991F0A94E2F7842B8C931CC0A2E3B0E07D
:10158000E2E3F0E08081482F8B81282F30E081E07A
:1015900090E0022E02C0880F991F0A94E2F7842B74
:1015A0008C9308C081E0898305C081E0898302C0F3
:1015B00081E08983898128960FB6F894DEBF0FBE3B
:1015C000CDBFCF91DF910895DF93CF9300D000D0AE
:1015D0000F92CDB7DEB78A836B8319828A81282F59
:1015E00030E03D832C838C819D8181309105D1F049
:1015F0002C813D81223031052CF48C819D81009716
:1016000061F01FC02C813D812230310581F08C8139
:101610009D818330910581F014C0EBE3F0E08B8174
:10162000808311C0E8E3F0E08B8180830CC0E5E3A8
:10163000F0E08B81808307C0E2E3F0E08B81808360
:1016400002C081E0898389810F900F900F900F90E5
:101650000F90CF91DF910895DF93CF93CDB7DEB791
:1016600027970FB6F894DEBF0FBECDBF8A836B837A
:101670005D834C8319828C819D81009709F478C029
:101680008B81883008F074C08A81282F30E03F8336
:101690002E834E815F814130510559F18E819F81AA
:1016A0008230910534F42E813F812115310569F096
:1016B0005CC04E815F814230510579F18E819F81FE
:1016C0008330910509F43DC050C0E9E3F0E080812A
:1016D000282F30E08B81882F90E0A90102C055951A
:1016E00047958A95E2F7CA018170EC81FD8180837C
:1016F00041C0E6E3F0E08081282F30E08B81882F25
:1017000090E0A90102C0559547958A95E2F7CA0174
:101710008170EC81FD8180832DC0E3E3F0E0808166
:10172000282F30E08B81882F90E0A90102C05595C9
:1017300047958A95E2F7CA018170EC81FD8180832B
:1017400019C0E0E3F0E08081282F30E08B81882F02
:1017500090E0A90102C0559547958A95E2F7CA0124
:101760008170EC81FD81808305C081E0898302C0A6
:1017700081E08983898127960FB6F894DEBF0FBE7A
:10178000CDBFCF91DF910895DF93CF9300D000D0EC
:101790000F92CDB7DEB78FEF8B831A825EC08A813E
:1017A000882F90E0FC01E151FF4F908181E0692F8B
:1017B00040E00E94D20919823DC08981882F90E0C3
:1017C000FC01E551FF4F90819E012C5F3F4F81E06E
:1017D000692FA9010E942C0B8C81882341F58981F6
:1017E000482F50E08A81282F30E0CA01880F991FC6
:1017F000880F991F820F931FFC01ED50FF4F8081CE
:101800008B830FC08981882F90E0FC01E551FF4F49
:1018100090819E012C5F3F4F81E0692FA9010E94BA
:101820002C0B8C81882371F38B818D831CC0898163
:101830008F5F89838981843008F4BFCF8A81882FA4
:1018400090E0FC01E151FF4F908181E0692F41E080
:101850000E94D2098A818F5F8A838A81843008F44A
:101860009ECF8B818D838D810F900F900F900F9065
:101870000F90CF91DF910895DF93CF93CDB7DEB76F
:10188000EAE3F0E087EC8083E7E3F0E08FE0808339
:10189000E4E3F0E08FEF8083E1E3F0E01082EBE33C
:1018A000F0E01082E8E3F0E08FEF8083E5E3F0E022
:1018B0001082E2E3F0E01082CF91DF9108950F9360
:1018C0001F93DF93CF93CDB7DEB7C159D0400FB68A
:1018D000F894DEBF0FBECDBFCE018D579F4FC357CB
:1018E000DF4F99838883CD58D04083E091E0C15782
:1018F000DF4F99838883CF58D04097E0CF56DF4F92
:101900009883C159D040C157DF4FE881F981CF5842
:10191000D0400080C157DF4F88819981CF58D04097
:101920000196C157DF4F99838883CF58D040C35762
:10193000DF4FE881F981CD58D0400082C357DF4F97
:1019400088819981CD58D0400196C357DF4F998344
:101950008883CD58D040CF56DF4F9881C159D040B1
:101960009150CF56DF4F9883C159D040CF56DF4FAB
:10197000E881C159D040EE2331F6FE01E058FF4F17
:1019800010820E943C0C0E94D70680E061E00E9419
:10199000170880E690E00E94EA0781E061E00E947B
:1019A00017088BE690E00E94EA07FE01E558FF4F1A
:1019B00080E090E8ABE3B5E480839183A283B383B6
:1019C0008E0109581F4FFE01E558FF4F608171815C
:1019D0008281938120E030E04AEF54E40E941702B4
:1019E000DC01CB01F80180839183A283B383FE01E4
:1019F000E958FF4F608171818281938120E030E05E
:101A000040E85FE30E947103882344F4FE01EB5831
:101A1000FF4F81E090E09183808364C0FE01E9582C
:101A2000FF4F608171818281938120E03FEF4FE71A
:101A300057E40E94110318160CF043C0FE01E5584C
:101A4000FF4F608171818281938120E030E040E22C
:101A500051E40E941702DC01CB018E010B581F4F8D
:101A6000BC01CD010E944100DC01CB01F801918352
:101A700080831FC0FE01ED58FF4F88EC90E09183FA
:101A80008083FE01ED58FF4F808191810197F1F72E
:101A9000FE01ED58FF4F91838083DE01AB58BF4FAD
:101AA000FE01EB58FF4F80819181019711969C9325
:101AB0008E93FE01EB58FF4F808191810097D1F604
:101AC00027C08E010B581F4FFE01E958FF4F608160
:101AD0007181828193810E944100DC01CB01F80178
:101AE00091838083DE01AF58BF4FFE01EB58FF4F5B
:101AF000808191818D939C93FE01EF58FF4F8081EF
:101B000091810197F1F7FE01EF58FF4F9183808398
:101B10000E946E0880E061E00E9417088AE790E06A
:101B20000E94EA07FE01EE57FF4F108245C00E9457
:101B3000C40BFE01EF57FF4F8083FE01EF57FF4FAD
:101B400080818F3F09F1FE01EE57FF4F8081282FE2
:101B500030E0CE0186579F4FDC01A20FB31FFE017C
:101B6000EF57FF4F80818C93FE01EE57FF4F80812E
:101B7000282F30E0CE0186579F4FFC01E20FF31F64
:101B800080810E9439060FC0FE01EF57FF4F808110
:101B90008F3F49F4DE01AE57BF4FFE01EE57FF4FB6
:101BA000808181508C93DE01AE57BF4FFE01EE570E
:101BB000FF4F80818F5F8C93FE01EE57FF4F808136
:101BC000833008F4B4CFFE01E359FF4F80E090E08A
:101BD000AAEFB4E480839183A283B3838E01075973
:101BE0001F4FFE01E359FF4F608171818281938114
:101BF00020E030E04AEF54E40E941702DC01CB0100
:101C0000F80180839183A283B383FE01E759FF4FDC
:101C1000608171818281938120E030E040E85FE360
:101C20000E947103882344F4FE01E959FF4F81E0CB
:101C300090E09183808364C0FE01E759FF4F60818B
:101C400071818281938120E03FEF4FE757E40E944A
:101C5000110318160CF043C0FE01E359FF4F6081D9
:101C600071818281938120E030E040E251E40E9462
:101C70001702DC01CB018E0109591F4FBC01CD01B8
:101C80000E944100DC01CB01F801918380831FC0D9
:101C9000FE01EB59FF4F88EC90E091838083FE01B9
:101CA000EB59FF4F808191810197F1F7FE01EB59CC
:101CB000FF4F91838083DE01A959BF4FFE01E9598F
:101CC000FF4F80819181019711969C938E93FE0125
:101CD000E959FF4F808191810097D1F628C08E018C
:101CE00009591F4FFE01E759FF4F608171818281C1
:101CF00093810E944100DC01CB01F8019183808334
:101D0000DE01AD59BF4FFE01E959FF4F808191813E
:101D100011969C938E93FE01ED59FF4F8081918126
:101D20000197F1F7FE01ED59FF4F91838083FE018A
:101D3000E657FF4F8081813309F0C6C2FE01E657A6
:101D4000FF4F8181833309F0BFC2FE01E657FF4F89
:101D50008281833309F0B8C20E946E08FE01E15A05
:101D6000FF4F80E090E0AAE7B4E480839183A283F0
:101D7000B3838E01055A1F4FFE01E15AFF4F608168
:101D800071818281938120E030E04AEF54E40E9427
:101D90001702DC01CB01F80180839183A283B38316
:101DA000FE01E55AFF4F608171818281938120E0BD
:101DB00030E040E85FE30E947103882344F4FE01B1
:101DC000E75AFF4F81E090E09183808364C0FE0179
:101DD000E55AFF4F608171818281938120E03FEF5E
:101DE0004FE757E40E94110318160CF043C0FE01A0
:101DF000E15AFF4F608171818281938120E030E060
:101E000040E251E40E941702DC01CB018E01075A27
:101E10001F4FBC01CD010E944100DC01CB01F80144
:101E2000918380831FC0FE01E95AFF4F88EC90E048
:101E300091838083FE01E95AFF4F80819181019750
:101E4000F1F7FE01E95AFF4F91838083DE01A75A23
:101E5000BF4FFE01E75AFF4F808191810197119694
:101E60009C938E93FE01E75AFF4F808191810097EA
:101E7000D1F627C08E01075A1F4FFE01E55AFF4FCA
:101E800060817181828193810E944100DC01CB01DC
:101E9000F80191838083DE01AB5ABF4FFE01E75A00
:101EA000FF4F808191818D939C93FE01EB5AFF4FF0
:101EB000808191810197F1F7FE01EB5AFF4F9183E9
:101EC000808384E890E00E94EA0780E065E041E0DA
:101ED0000E94D209FE01EF5AFF4F80E090E8ABE389
:101EE000B5E480839183A283B3838E01035B1F4F8C
:101EF000FE01EF5AFF4F608171818281938120E062
:101F000030E04AEF54E40E941702DC01CB01F801F3
:101F100080839183A283B383FE01E35BFF4F6081E3
:101F200071818281938120E030E040E85FE30E948C
:101F30007103882344F4FE01E55BFF4F81E090E0EC
:101F40009183808364C0FE01E35BFF4F60817181F8
:101F50008281938120E03FEF4FE757E40E94110315
:101F600018160CF043C0FE01EF5AFF4F60817181DB
:101F70008281938120E030E040E251E40E94170228
:101F8000DC01CB018E01055B1F4FBC01CD010E941E
:101F90004100DC01CB01F801918380831FC0FE0169
:101FA000E75BFF4F88EC90E091838083FE01E75B65
:101FB000FF4F808191810197F1F7FE01E75BFF4FB1
:101FC00091838083DE01A55BBF4FFE01E55BFF4F80
:101FD00080819181019711969C938E93FE01E55B20
:101FE000FF4F808191810097D1F627C08E01055B5C
:101FF0001F4FFE01E35BFF4F6081718182819381FE
:102000000E944100DC01CB01F80191838083DE0155
:10201000A95BBF4FFE01E55BFF4F808191818D93EE
:102020009C93FE01E95BFF4F808191810197F1F75D
:10203000FE01E95BFF4F918380830E946E0883E974
:1020400090E00E94EA07FE01ED5BFF4F80E090E820
:10205000ABE3B5E480839183A283B3838E01015CFB
:102060001F4FFE01ED5BFF4F608171818281938183
:1020700020E030E04AEF54E40E941702DC01CB017B
:10208000F80180839183A283B383FE01FF96608170
:1020900071818281938120E030E040E85FE30E941B
:1020A000710388232CF481E090E09EAF8DAF46C091
:1020B000FE01FF96608171818281938120E03FEF74
:1020C0004FE757E40E941103181664F5FE01ED5B1B
:1020D000FF4F608171818281938120E030E040E296
:1020E00051E40E941702DC01CB01BC01CD010E942A
:1020F0004100DC01CB019EAF8DAF0FC088EC90E0BA
:102100009CAF8BAF8BAD9CAD0197F1F79CAF8BAFC4
:102110008DAD9EAD01979EAF8DAF8DAD9EAD0097FD
:1021200069F716C0FE01FF966081718182819381FB
:102130000E944100DC01CB019EAF8DAF8DAD9EAD05
:102140009AAF89AF89AD9AAD0197F1F79AAF89AF90
:102150000E946E0880E066E041E00E94D2098BE9AF
:1021600090E00E94EA0781E060E00E94170886EA9A
:1021700090E00E94EA07FE01E158FF4F10828CC0F8
:10218000FE01E158FF4F8081282F30E0CE018D57AE
:102190009F4FFC01E20FF31F908182E0692F0E94A4
:1021A000E40A80E090E0AAE7B4E48DAB9EABAFAB6D
:1021B000B8AF6DA97EA98FA998AD20E030E04AEFB5
:1021C00054E40E941702DC01CB0189AB9AABABABA4
:1021D000BCAB69A97AA98BA99CA920E030E040E8B2
:1021E0005FE30E94710388232CF481E090E098ABB8
:1021F0008FA73FC069A97AA98BA99CA920E03FEFCE
:102200004FE757E40E94110318164CF56DA97EA9FB
:102210008FA998AD20E030E040E251E40E9417021F
:10222000DC01CB01BC01CD010E944100DC01CB01EE
:1022300098AB8FA70FC088EC90E09EA78DA78DA5C7
:102240009EA50197F1F79EA78DA78FA598A9019745
:1022500098AB8FA78FA598A9009769F714C069A9B3
:102260007AA98BA99CA90E944100DC01CB0198AB03
:102270008FA78FA598A99CA78BA78BA59CA5019735
:10228000F1F79CA78BA7DE01A158BF4FFE01E158D3
:10229000FF4F80818F5F8C93FE01E158FF4F80815B
:1022A000873008F46DCF80E066E040E00E94D209FC
:1022B00080E065E040E00E94D2090E946E088AE753
:1022C00090E00E94EA0782C10E946E0880E090E0E0
:1022D000AAE7B4E48FA398A7A9A7BAA76FA178A586
:1022E00089A59AA520E030E04AEF54E40E94170245
:1022F000DC01CB018BA39CA3ADA3BEA36BA17CA1EE
:102300008DA19EA120E030E040E85FE30E947103D0
:1023100088232CF481E090E09AA389A33FC06BA1AD
:102320007CA18DA19EA120E03FEF4FE757E40E94E2
:10233000110318164CF56FA178A589A59AA520E080
:1023400030E040E251E40E941702DC01CB01BC0105
:10235000CD010E944100DC01CB019AA389A30FC0EB
:1023600088EC90E098A38F8F8F8D98A10197F1F75B
:1023700098A38F8F89A19AA101979AA389A389A174
:102380009AA1009769F714C06BA17CA18DA19EA1B1
:102390000E944100DC01CB019AA389A389A19AA1E3
:1023A0009E8F8D8F8D8D9E8D0197F1F79E8F8D8FD6
:1023B00082EB90E00E94EA07DE01A058BF4FFE01C9
:1023C000E058FF4F80818F5F8C9380E090E8ABE313
:1023D000B5E4898F9A8FAB8FBC8F698D7A8D8B8D89
:1023E0009C8D20E030E04AEF54E40E941702DC01AB
:1023F000CB018D8B9E8BAF8BB88F6D897E898F893A
:10240000988D20E030E040E85FE30E94710388236C
:102410002CF481E090E09C8B8B8B3FC06D897E8992
:102420008F89988D20E03FEF4FE757E40E9411031A
:1024300018164CF5698D7A8D8B8D9C8D20E030E0DF
:1024400040E251E40E941702DC01CB01BC01CD0146
:102450000E944100DC01CB019C8B8B8B0FC088EC70
:1024600090E09A8B898B89899A890197F1F79A8BE9
:10247000898B8B899C8901979C8B8B8B8B899C8901
:10248000009769F714C06D897E898F89988D0E94A5
:102490004100DC01CB019C8B8B8B8B899C89988BB9
:1024A0008F878F8598890197F1F7988B8F870E9486
:1024B0006E08FE01E058FF4F8081823029F481ECE4
:1024C00090E00E94EA070AC0FE01E058FF4F8081B9
:1024D000823020F48AEC90E00E94EA0780E090E8E5
:1024E000ABE3B5E48B879C87AD87BE876B857C8526
:1024F0008D859E8520E030E04AEF54E40E9417026B
:10250000DC01CB018F839887A987BA876F81788593
:1025100089859A8520E030E040E85FE30E947103FE
:1025200088232CF481E090E09E838D833FC06F81EF
:10253000788589859A8520E03FEF4FE757E40E9430
:10254000110318164CF56B857C858D859E8520E0E2
:1025500030E040E251E40E941702DC01CB01BC01F3
:10256000CD010E944100DC01CB019E838D830FC011
:1025700088EC90E09C838B838B819C810197F1F7A1
:102580009C838B838D819E8101979E838D838D811A
:102590009E81009769F714C06F81788589859A8537
:1025A0000E944100DC01CB019E838D838D819E8141
:1025B0009A83898389819A810197F1F79A83898324
:1025C0000E946E088AE790E00E94EA07FE01E05848
:1025D000FF4F8081833009F0A5CA0E946E0884ED08
:1025E00090E00E94EA0780E067E041E00E94D209A3
:1025F00099CA2F923F924F925F926F927F928F92E1
:102600009F92AF92BF92CF92DF92EF92FF920F9381
:102610001F93CF93DF93CDB7DEB7CA1BDB0B0FB68B
:10262000F894DEBF0FBECDBF09942A883988488848
:102630005F846E847D848C849B84AA84B984C884DE
:10264000DF80EE80FD800C811B81AA81B981CE0FD5
:10265000D11D0FB6F894DEBF0FBECDBFED010895BA
:04266000F894FFCF1C
:1026640057656C636F6D6520546F005061737377A9
:102674006F726420436865636B0050617373776F96
:1026840072643A0050617373776F726420526967A1
:1026940068740057656C636F6D6500446F6F7220DA
:1026A400436C6F73650041667465722036207365F0
:1026B400630050617373776F72642057726F6E6733
:1026C400004C61737420547279005472792041670C
:1026D40061696E0042757A7A657220416C65727424
:1026E4006564000000000000000000040506070007
:1026F4000102033132332B3435362D3738392A3041
:0A2704003D2F25829299B0A4F9C080
:00000001FF
